{
  "abi": [
    {
      "type": "constructor",
      "inputs": [
        {
          "name": "_ens",
          "type": "address",
          "internalType": "contract ENSRegistry"
        },
        {
          "name": "_nft",
          "type": "address",
          "internalType": "contract NFTRegistrar"
        },
        {
          "name": "_rootNode",
          "type": "bytes32",
          "internalType": "bytes32"
        }
      ],
      "stateMutability": "nonpayable"
    },
    {
      "type": "function",
      "name": "domainExpires",
      "inputs": [
        {
          "name": "name",
          "type": "string",
          "internalType": "string"
        }
      ],
      "outputs": [
        {
          "name": "",
          "type": "uint256",
          "internalType": "uint256"
        }
      ],
      "stateMutability": "view"
    },
    {
      "type": "function",
      "name": "domains",
      "inputs": [
        {
          "name": "",
          "type": "bytes32",
          "internalType": "bytes32"
        }
      ],
      "outputs": [
        {
          "name": "owner",
          "type": "address",
          "internalType": "address"
        },
        {
          "name": "expires",
          "type": "uint256",
          "internalType": "uint256"
        }
      ],
      "stateMutability": "view"
    },
    {
      "type": "function",
      "name": "ens",
      "inputs": [],
      "outputs": [
        {
          "name": "",
          "type": "address",
          "internalType": "contract ENSRegistry"
        }
      ],
      "stateMutability": "view"
    },
    {
      "type": "function",
      "name": "isAvailable",
      "inputs": [
        {
          "name": "name",
          "type": "string",
          "internalType": "string"
        }
      ],
      "outputs": [
        {
          "name": "",
          "type": "bool",
          "internalType": "bool"
        }
      ],
      "stateMutability": "view"
    },
    {
      "type": "function",
      "name": "nft",
      "inputs": [],
      "outputs": [
        {
          "name": "",
          "type": "address",
          "internalType": "contract NFTRegistrar"
        }
      ],
      "stateMutability": "view"
    },
    {
      "type": "function",
      "name": "owner",
      "inputs": [],
      "outputs": [
        {
          "name": "",
          "type": "address",
          "internalType": "address"
        }
      ],
      "stateMutability": "view"
    },
    {
      "type": "function",
      "name": "register",
      "inputs": [
        {
          "name": "name",
          "type": "string",
          "internalType": "string"
        },
        {
          "name": "owner",
          "type": "address",
          "internalType": "address"
        },
        {
          "name": "durationInYears",
          "type": "uint256",
          "internalType": "uint256"
        },
        {
          "name": "tokenURI",
          "type": "string",
          "internalType": "string"
        }
      ],
      "outputs": [],
      "stateMutability": "payable"
    },
    {
      "type": "function",
      "name": "renew",
      "inputs": [
        {
          "name": "name",
          "type": "string",
          "internalType": "string"
        },
        {
          "name": "additionalYears",
          "type": "uint256",
          "internalType": "uint256"
        }
      ],
      "outputs": [],
      "stateMutability": "payable"
    },
    {
      "type": "function",
      "name": "renounceOwnership",
      "inputs": [],
      "outputs": [],
      "stateMutability": "nonpayable"
    },
    {
      "type": "function",
      "name": "rentPrice",
      "inputs": [
        {
          "name": "numYears",
          "type": "uint256",
          "internalType": "uint256"
        }
      ],
      "outputs": [
        {
          "name": "",
          "type": "uint256",
          "internalType": "uint256"
        }
      ],
      "stateMutability": "view"
    },
    {
      "type": "function",
      "name": "rootNode",
      "inputs": [],
      "outputs": [
        {
          "name": "",
          "type": "bytes32",
          "internalType": "bytes32"
        }
      ],
      "stateMutability": "view"
    },
    {
      "type": "function",
      "name": "transferOwnership",
      "inputs": [
        {
          "name": "name",
          "type": "string",
          "internalType": "string"
        },
        {
          "name": "newOwner",
          "type": "address",
          "internalType": "address"
        }
      ],
      "outputs": [],
      "stateMutability": "nonpayable"
    },
    {
      "type": "function",
      "name": "transferOwnership",
      "inputs": [
        {
          "name": "newOwner",
          "type": "address",
          "internalType": "address"
        }
      ],
      "outputs": [],
      "stateMutability": "nonpayable"
    },
    {
      "type": "function",
      "name": "withdraw",
      "inputs": [
        {
          "name": "withdrawAddress",
          "type": "address",
          "internalType": "address"
        }
      ],
      "outputs": [],
      "stateMutability": "nonpayable"
    },
    {
      "type": "function",
      "name": "yearlyRent",
      "inputs": [],
      "outputs": [
        {
          "name": "",
          "type": "uint256",
          "internalType": "uint256"
        }
      ],
      "stateMutability": "view"
    },
    {
      "type": "event",
      "name": "OwnershipTransferred",
      "inputs": [
        {
          "name": "previousOwner",
          "type": "address",
          "indexed": true,
          "internalType": "address"
        },
        {
          "name": "newOwner",
          "type": "address",
          "indexed": true,
          "internalType": "address"
        }
      ],
      "anonymous": false
    },
    {
      "type": "error",
      "name": "OwnableInvalidOwner",
      "inputs": [
        {
          "name": "owner",
          "type": "address",
          "internalType": "address"
        }
      ]
    },
    {
      "type": "error",
      "name": "OwnableUnauthorizedAccount",
      "inputs": [
        {
          "name": "account",
          "type": "address",
          "internalType": "address"
        }
      ]
    }
  ],
  "bytecode": {
    "object": "0x6080604052655af3107a4000600455348015610019575f80fd5b50604051610dd3380380610dd383398101604081905261003891610105565b338061005d57604051631e4fbdf760e01b81525f600482015260240160405180910390fd5b6100668161009f565b50600180546001600160a01b039485166001600160a01b0319918216179091556002805493909416921691909117909155600355610145565b5f80546001600160a01b038381166001600160a01b0319831681178455604051919092169283917f8be0079c531659141344cd1fd0a4f28419497f9722a3daafe3b4186f6b6457e09190a35050565b6001600160a01b0381168114610102575f80fd5b50565b5f805f60608486031215610117575f80fd5b8351610122816100ee565b6020850151909350610133816100ee565b80925050604084015190509250925092565b610c81806101525f395ff3fe6080604052600436106100e4575f3560e01c8063842b685a11610087578063c0e793c211610057578063c0e793c214610261578063c722f17714610280578063f2fde38b146102dd578063faff50a8146102fc575f80fd5b8063842b685a146101f05780638da5cb5b14610203578063965306aa1461021f578063acf1a8411461024e575f80fd5b806360b6c5cd116100c257806360b6c5cd146101645780636bd7f400146101a8578063715018a6146101c75780637dfb79d1146101db575f80fd5b80633f15457f146100e857806347ccca021461012457806351cff8d914610143575b5f80fd5b3480156100f3575f80fd5b50600154610107906001600160a01b031681565b6040516001600160a01b0390911681526020015b60405180910390f35b34801561012f575f80fd5b50600254610107906001600160a01b031681565b34801561014e575f80fd5b5061016261015d3660046109a7565b610311565b005b34801561016f575f80fd5b5061019a61017e366004610a66565b80516020918201205f9081526005909152604090206001015490565b60405190815260200161011b565b3480156101b3575f80fd5b5061019a6101c2366004610aa0565b61034f565b3480156101d2575f80fd5b50610162610364565b3480156101e6575f80fd5b5061019a60045481565b6101626101fe366004610ab7565b610377565b34801561020e575f80fd5b505f546001600160a01b0316610107565b34801561022a575f80fd5b5061023e610239366004610a66565b6105c0565b604051901515815260200161011b565b61016261025c366004610b35565b6105f9565b34801561026c575f80fd5b5061016261027b366004610b77565b61075b565b34801561028b575f80fd5b506102be61029a366004610aa0565b60056020525f9081526040902080546001909101546001600160a01b039091169082565b604080516001600160a01b03909316835260208301919091520161011b565b3480156102e8575f80fd5b506101626102f73660046109a7565b6108d4565b348015610307575f80fd5b5061019a60035481565b610319610911565b6040516001600160a01b038216904780156108fc02915f818181858888f1935050505015801561034b573d5f803e3d5ffd5b5050565b5f8160045461035e9190610bd6565b92915050565b61036c610911565b6103755f61093d565b565b60018210156103ba5760405162461bcd60e51b815260206004820152600a60248201526926b4b71018903cb2b0b960b11b60448201526064015b60405180910390fd5b835160208501206103ca856105c0565b61040d5760405162461bcd60e51b8152602060048201526014602482015273446f6d61696e206e6f7420617661696c61626c6560601b60448201526064016103b1565b5f6104178461034f565b9050803410156104605760405162461bcd60e51b8152602060048201526014602482015273125b9cdd59999a58da595b9d081c185e5b595b9d60621b60448201526064016103b1565b5f6003548360405160200161047f929190918252602082015260400190565b6040516020818303038152906040528051906020012090505f856301e133806104a89190610bd6565b6104b29042610bed565b6040805180820182526001600160a01b038a811680835260208084018681525f8b8152600590925290859020935184546001600160a01b0319169084161784555160019384015591549251635b0fc9c360e01b8152600481018790526024810192909252929350911690635b0fc9c3906044015f604051808303815f87803b15801561053c575f80fd5b505af115801561054e573d5f803e3d5ffd5b50506002546040516334ff261960e21b81528793506001600160a01b03909116915063d3fc986490610588908b9085908b90600401610c00565b5f604051808303815f87803b15801561059f575f80fd5b505af11580156105b1573d5f803e3d5ffd5b50505050505050505050505050565b80516020918201205f90815260058252604090819020815180830190925280546001600160a01b03168252600101549101819052421190565b81516020808401919091205f8181526005909252604090912080546001600160a01b03166106615760405162461bcd60e51b8152602060048201526015602482015274111bdb585a5b881b9bdd081c9959da5cdd195c9959605a1b60448201526064016103b1565b80546001600160a01b031633146106ad5760405162461bcd60e51b815260206004820152601060248201526f2737ba103237b6b0b4b71037bbb732b960811b60448201526064016103b1565b5f6106b78461034f565b9050803410156107005760405162461bcd60e51b8152602060048201526014602482015273125b9cdd59999a58da595b9d081c185e5b595b9d60621b60448201526064016103b1565b428260010154101561072e5761071a846301e13380610bd6565b6107249042610bed565b6001830155610754565b61073c846301e13380610bd6565b826001015f82825461074e9190610bed565b90915550505b5050505050565b81516020808401919091205f8181526005909252604090912080546001600160a01b031633146107b95760405162461bcd60e51b81526020600482015260096024820152682737ba1037bbb732b960b91b60448201526064016103b1565b80546001600160a01b0319166001600160a01b03841617815560035460408051602081019290925281018390525f9060600160408051808303601f19018152908290528051602090910120600154635b0fc9c360e01b8352600483018290526001600160a01b0387811660248501529193501690635b0fc9c3906044015f604051808303815f87803b15801561084d575f80fd5b505af115801561085f573d5f803e3d5ffd5b5050600254604051632142170760e11b81523360048201526001600160a01b0388811660248301526044820188905287945090911691506342842e0e906064015f604051808303815f87803b1580156108b6575f80fd5b505af11580156108c8573d5f803e3d5ffd5b50505050505050505050565b6108dc610911565b6001600160a01b03811661090557604051631e4fbdf760e01b81525f60048201526024016103b1565b61090e8161093d565b50565b5f546001600160a01b031633146103755760405163118cdaa760e01b81523360048201526024016103b1565b5f80546001600160a01b038381166001600160a01b0319831681178455604051919092169283917f8be0079c531659141344cd1fd0a4f28419497f9722a3daafe3b4186f6b6457e09190a35050565b80356001600160a01b03811681146109a2575f80fd5b919050565b5f602082840312156109b7575f80fd5b6109c08261098c565b9392505050565b634e487b7160e01b5f52604160045260245ffd5b5f82601f8301126109ea575f80fd5b813567ffffffffffffffff811115610a0457610a046109c7565b604051601f8201601f19908116603f0116810167ffffffffffffffff81118282101715610a3357610a336109c7565b604052818152838201602001851015610a4a575f80fd5b816020850160208301375f918101602001919091529392505050565b5f60208284031215610a76575f80fd5b813567ffffffffffffffff811115610a8c575f80fd5b610a98848285016109db565b949350505050565b5f60208284031215610ab0575f80fd5b5035919050565b5f805f8060808587031215610aca575f80fd5b843567ffffffffffffffff811115610ae0575f80fd5b610aec878288016109db565b945050610afb6020860161098c565b925060408501359150606085013567ffffffffffffffff811115610b1d575f80fd5b610b29878288016109db565b91505092959194509250565b5f8060408385031215610b46575f80fd5b823567ffffffffffffffff811115610b5c575f80fd5b610b68858286016109db565b95602094909401359450505050565b5f8060408385031215610b88575f80fd5b823567ffffffffffffffff811115610b9e575f80fd5b610baa858286016109db565b925050610bb96020840161098c565b90509250929050565b634e487b7160e01b5f52601160045260245ffd5b808202811582820484141761035e5761035e610bc2565b8082018082111561035e5761035e610bc2565b60018060a01b0384168152826020820152606060408201525f82518060608401528060208501608085015e5f608082850101526080601f19601f83011684010191505094935050505056fea2646970667358221220c12b1caff9655efc416767941680d33b447f8c7c1afb3e87341c807555c5f60464736f6c634300081a0033",
    "linkReferences": {}
  },
  "methodIdentifiers": {
    "domainExpires(string)": "60b6c5cd",
    "domains(bytes32)": "c722f177",
    "ens()": "3f15457f",
    "isAvailable(string)": "965306aa",
    "nft()": "47ccca02",
    "owner()": "8da5cb5b",
    "register(string,address,uint256,string)": "842b685a",
    "renew(string,uint256)": "acf1a841",
    "renounceOwnership()": "715018a6",
    "rentPrice(uint256)": "6bd7f400",
    "rootNode()": "faff50a8",
    "transferOwnership(address)": "f2fde38b",
    "transferOwnership(string,address)": "c0e793c2",
    "withdraw(address)": "51cff8d9",
    "yearlyRent()": "7dfb79d1"
  },
  "id": 40
}